:1000BC00D3EF9400EE940040147D6E7C00ED1D7027
:0D00CC00011CED4C70F7EF1F70E61E80E385
:0100D9002204
:1000DA0000010203040506073F065B4F666D7D07B4
:0800EA007F6F777C395E7971AC
:10000E00EF75F00A84FDEF75F00A84AFF0750A0003
:10001E008F0BD2B7AF05EF9000E293F580C2B7E435
:10002E00F5809000DA93F5A07F017E001200BCD21D
:10003E00B7E50B9000E293F580C2B7E4F58090002F
:0B004E00DB93F5A07F017E000200BCE8
:0E00F200758901758C4C758AD0D2AFD2A922C7
:1000590020B40F7F017E001200BC20B40530B4FD2E
:10006900B28C20B3107F017E001200BC20B306E4DD
:10007900F50830B3FD20B2177F0A7E001200BC20BC
:10008900B20D0508E508B43C03E4F50830B2FD22D9
:0D0100001200F2120059AF0812000E80F636
:03000B0002009957
:10009900C0E0C0D0758C4C758AD00509E509B41447
:1000A9000D7509000508E508B43C03750800D0D0B2
:0300B900D0E03262
:0300000002010DED
:0C010D00787FE4F6D8FD75810B0201003C
:00000001FF
