:10013300C0F9A4B0999282F880908883C6A1868E74
:1000F400758901758D3C758BB0D288D28AD2AFD206
:10010400ABD28ED2A8D2AAE50890013393F58080B1
:01011400F6F4
:03001B000200CF11
:1000CF00C0E0C0D0758D3C758BB00509E509B4143F
:1000DF000F7509000508E508D3940840037508005B
:0500EF00D0D0D0E0328A
:0300030002007A7E
:10007A00C0E0C0F0C083C082C0D075D000C000C04C
:10008A0001C002C003C004C005C006C007750A004B
:10009A00E50AC394084013E50A90013393F5A07F5B
:1000AA00E87E03120115050A80E6D007D006D005BE
:1000BA00D004D003D002D001D000D0D0D082D083D7
:0500CA00D0F0D0E0328F
:0300130002001ECA
:10001E00C0E0C0F0C083C082C0D075D000C000C0A8
:10002E0001C002C003C004C005C006C007750B00A6
:10003E00E50BC394084013E50B90013393F5907FC5
:10004E00E87E03120115050B80E6900142E493F55C
:10005E0090D007D006D005D004D003D002D001D066
:0C006E0000D0D0D082D083D0F0D0E0329F
:10011500D3EF9400EE940040147D6E7C00ED1D70CD
:0D012500011CED4C70F7EF1F70E61E80E32B
:0101320022AA
:03000000020006F5
:0C000600787FE4F6D8FD75810B0200F451
:00000001FF
