:10010400C0F9A4B0999282F880908883C6A1868EA3
:100114003F065B4F666D7D077F6F777C395E797133
:0400B8007F187E012E
:1000BC00E4FDFCD3ED9FEC9E5018E4FBFAD3EB9FD0
:1000CC00EA9E50070BBB00010A80F20DBD00010C2B
:0200DC0080E1C1
:0100DE0022FF
:1000DF00E4F50CF50DE50D90010493F5801200B8D1
:1000EF007580FF050DE50D7002050CD39407E50C27
:0400FF00940040E148
:0101030022D9
:0F012400D288D2A8D28AD2AAD2B8C2BAD2AF2277
:080133001201241200DF80FB21
:03000300020016E2
:10001600C0E0C083C082C0D075D000C002C003C09B
:0700260004C005C006C0077D
:10002D00750800750900E50990010493F5A012000B
:10003D00B875A0FF0509E50970020508D39407E519
:05004D0008940040E1F1
:10005200D007D006D005D004D003D002D0D0D082B1
:05006200D083D0E03264
:0300130002006781
:10006700C0E0C083C082C0D075D000C002C003C04A
:0700770004C005C006C0072C
:10007E00750A00750B00E50B90010493F5901200C4
:10008E00B87590FF050BE50B7002050AD39407E5D2
:05009E000A940040E19E
:1000A300D007D006D005D004D003D002D0D0D08260
:0500B300D083D0E03213
:03000000020006F5
:0C000600787FE4F6D8FD75810D0201330F
:00000001FF
