:10012C00C0F9A4B0999282F880908883C6A1868E7B
:1000ED00758901758D3C758BB0D288D28AD2AFD20D
:1000FD00ABD28ED2A8D2AAE50890012C93F58080C0
:01010D00F6FB
:03001B000200C818
:1000C800C0E0C0D0758D3C758BB00509E509B41446
:1000D8000F7509000508E508D39408400375080062
:0500E800D0D0D0E03291
:0300030002001EDA
:10001E00C0E0C0F0C083C082C0D075D000C000C0A8
:10002E0001C002C003C004C005C006C007750A00A7
:10003E00E50AC394084013E50A90012C93F5A07FBE
:10004E00E87E0312010E050A80E6D007D006D00521
:10005E00D004D003D002D001D000D0D0D082D08333
:05006E00D0F0D0E032EB
:0300130002007375
:10007300C0E0C0F0C083C082C0D075D000C000C053
:1000830001C002C003C004C005C006C007750B0051
:10009300E50BC394084013E50B90012C93F5907F77
:1000A300E87E0312010E050B80E6D007D006D005CB
:1000B300D004D003D002D001D000D0D0D082D083DE
:0500C300D0F0D0E03296
:10010E00D3EF9400EE940040147D6E7C00ED1D70D4
:0D011E00011CED4C70F7EF1F70E61E80E332
:01012B0022B1
:03000000020006F5
:0C000600787FE4F6D8FD75810B0200ED58
:00000001FF
