:10046B00C0F9A4B0999282F880908883C6A1868E39
:08047B0002140000021600004B
:0804840012000312020880F8C7
:1000030075A0FE85A0185318F0E51864F06070120F
:10001300044485A0185318F0E51864F0606185A0C6
:1000230018E5182482602424C0601824E0600C249E
:10003300F07029750E00750F078021750E00750F7E
:10004300088019750E00750F098011750800750970
:1000530001851416851517E4F514F515E51864F0F4
:10006300600885A0185318F080F2AE14AF157C0019
:100073007D0A12038EE50F2FF515E50E3EF5147577
:10008300A0FD85A0185318F0E51864F06070120401
:100093004485A0185318F0E51864F0606185A01832
:1000A300E5182483602424C0601824E0600C24F045
:1000B3007029750E00750F048021750E00750F05EC
:1000C3008019750E00750F068011750800750902F9
:1000D300851416851517E4F514F515E51864F06015
:1000E3000885A0185318F080F2AE14AF157C007D7C
:1000F3000A12038EE50F2FF515E50E3EF51475A0D4
:10010300FB85A0185318F0E51864F06070120444DE
:1001130085A0185318F0E51864F0606185A018E510
:10012300182485602424C0601824E0600C24F07037
:1001330029750E00750F018021750E00750F028061
:1001430019750E00750F0380117508007509038575
:100153001416851517E4F514F515E51864F0600811
:1001630085A0185318F080F2AE14AF157C007D0AF9
:1001730012038EE50F2FF515E50E3EF51475A0F766
:1001830085A0185318F0E51864F0607412044485D0
:10019300A0185318F0E51864F0606585A018E518F9
:1001A3002489602324C0601A24E0600F24F070289F
:1001B300E4F514F515F516F517801DE4F50EF50FA6
:1001C30080161203F580117508007509048514164D
:1001D300851517E4F514F515E51864F0600885A096
:1001E300185318F080F2E50F450E7014AE14AF15D6
:1001F300FC7D0A12038EE50F2FF515E50E3EF5146F
:04020300AE14AF1571
:0102070022D4
:1003F500E508704AE50924FE601A14602714603286
:100405002403703AAC14AD15AE16AF171203A08EC7
:10041500148F1522AC14AD15AE16AF1712038E8EC0
:10042500148F1522C3E5179515F515E5169514F5E1
:0F0435001422E5172515F515E5163514F51422D3
:040444007F037E00B4
:10044800E4FDFCD3ED9FEC9E5018E4FBFAD3EB9F40
:10045800EA9E50070BBB00010A80F20DBD00010C9B
:0204680080E131
:01046A00226F
:040208008E188F19A4
:10020C00E4F51AF51BF51CF51DF51EF51FFBFA7C24
:10021C00037DE81203A08E1A8F1BAE18AF197C0356
:10022C007DE81203A07E007F64CFCDCFCECCCE1262
:10023C0003A08E1C8F1DAE18AF197C037DE8120332
:10024C00A07E007F64CFCDCFCECCCE1203A07E009B
:10025C007F0ACFCDCFCECCCE1203A08E1E8F1FAE79
:10026C0018AF197C037DE81203A07E007F64CFCD0C
:10027C00CFCECCCE1203A07E007F0ACFCDCFCECC7A
:10028C00CE1203A0AB05D290D291D292D293AF03EF
:10029C00EF90046B93F580C2937F057E00120448A7
:1002AC00C3E519940AE5189400400ED293E51F9308
:1002BC00F580C2927F05120448C3E5199464E518D1
:1002CC0094004013D292E51D90046B93F580C2917B
:1002DC007F057E00120448C3E51994E8E5189403E1
:1002EC004013D291E51B90046B93F580C2907F056F
:0502FC007E0012044821
:0103010022D9
:03000000020302F6
:0C030200787FE4F6D8FD75811F020349E6
:10038E00EF8DF0A4A8F0CF8CF0A428CE8DF0A42E83
:02039E00FE223D
:1003A000BC000BBE0029EF8DF084FFADF022E4CC41
:1003B000F875F008EF2FFFEE33FEEC33FCEE9DEC0A
:1003C000984005FCEE9DFE0FD5F0E9E4CEFD22ED50
:1003D000F8F5F0EE8420D21CFEADF075F008EF2F9A
:1003E000FFED33FD4007985006D5F0F222C398FD8B
:0503F0000FD5F0EA2228
:10030E00020484E493A3F8E493A34003F68001F27D
:10031E0008DFF48029E493A3F85407240CC8C333F0
:10032E00C4540F4420C8834004F456800146F6DFBF
:10033E00E4800B010204081020408090047BE47ED0
:10034E00019360BCA3FF543F30E509541FFEE493B4
:10035E00A360010ECF54C025E060A840B8E493A37B
:10036E00FAE493A3F8E493A3C8C582C8CAC583CAA6
:10037E00F0A3C8C582C8CAC583CADFE9DEE780BE5E
:010483000078
:00000001FF
