:10018B00C0F9A4B0999282F880908883C6A1868E1C
:0701AF00D2B712000380FB30
:1000030075A0FE85A0085308F0E50864F060491266
:10001300016485A0085308F0E50864F0603A85A000
:1000230008E5082482601B24C0601224E0600924D0
:10003300F07012E4F509800D750901800875090255
:100043008003750903E50864F0600885A008530878
:10005300F080F2AF091201A775A0FD85A00853082F
:10006300F0E50864F0604912016485A0085308F0C4
:10007300E50864F0603A85A008E5082483601B2442
:10008300C0601224E0600924F07012750904800D29
:1000930075090580087509068003750907E5086475
:1000A300F0600885A0085308F080F2AF091201A799
:1000B30075A0FB85A0085308F0E50864F0604912B9
:1000C300016485A0085308F0E50864F0603A85A050
:1000D30008E5082485601B24C0601224E06009241D
:1000E300F07012750908800D750909800875090AF1
:1000F300800375090BE50864F0600885A0085308C0
:10010300F080F2AF091201A775A0F785A008530884
:10011300F0E50864F0604912016485A0085308F013
:10012300E50864F0603A85A008E5082489601B248B
:10013300C0601224E0600924F0701275090C800D70
:1001430075090D800875090E800375090FE50864AC
:10015300F0600885A0085308F080F2AF091201A7E8
:010163002279
:040164007F037E0097
:10016800E4FDFCD3ED9FEC9E5018E4FBFAD3EB9F23
:10017800EA9E50070BBB00010A80F20DBD00010C7E
:0201880080E114
:01018A002252
:0801A700EF90018B93F580221B
:0300000002019B5F
:0C019B00787FE4F6D8FD7581090201AF01
:00000001FF
