:10017400E4FDFCD3ED9FEC9E5018E4FBFAD3EB9F17
:10018400EA9E50070BBB00010A80F20DBD00010C72
:0201940080E108
:010196002246
:1001970000010203040506073F065B4F666D7D07F6
:0801A7007F6F777C395E7971EE
:0C01C100EF90019F93F580D2B7C2B722E7
:100003007590FE8590085308F0E50864F0604D7F15
:10001300057E001201748590085308F0E50864F02A
:10002300603A859008E5082482601B24C06012248E
:10003300E0600924F07012E4F509800D7509018070
:10004300087509028003750903E50864F0600885F3
:1000530090085308F080F2AF091201C17590FD8535
:1000630090085308F0E50864F0604D7F057E0012A8
:1000730001748590085308F0E50864F0603A8590B0
:1000830008E5082483601B24C0601224E06009246F
:10009300F07012750904800D75090580087509064D
:1000A3008003750907E50864F06008859008530824
:1000B300F080F2AF091201C17590FB8590085308D7
:1000C300F0E50864F0604D7F057E001201748590B1
:1000D300085308F0E50864F0603A859008E50824C1
:1000E30085601B24C0601224E0600924F07012753F
:1000F3000908800D750909800875090A80037509C7
:100103000BE50864F060088590085308F080F2AFAF
:10011300091201C17590F78590085308F0E508644A
:10012300F0604D7F057E001201748590085308F03E
:10013300E50864F0603A859008E5082489601B248B
:10014300C0601224E0600924F0701275090C800D60
:1001530075090D800875090E800375090FE508649C
:10016300F060088590085308F080F2AF091201C1CE
:010173002269
:1001AF00E4F580D2B7C2B790019793F5A012000380
:0201BF0080FBC3
:030000000201CD2D
:0C01CD00787FE4F6D8FD7581090201AFCF
:00000001FF
