:1000EF0000010203040506073F065B4F666D7D079F
:0800FF007F6F777C395E797197
:1000B200758911758C4C758AD0758D4C758BD0D223
:1000C200AFD2A9D2ABD28CD28EAD0BAF0A12001E28
:0200D20080F7B5
:10001E008D0DD2B7EF9000F793F580C2B7E4F5805F
:10002E009000EF93F5A07F017E0012008FD2B7E50E
:10003E000D9000F793F580C2B7E4F5809000F09331
:09004E00F5A07F017E0002008F85
:10008F00E4FDFCD3ED9FEC9E5018E4FBFAD3EB9FFD
:10009F00EA9E50070BBB00010A80F20DBD00010C58
:0200AF0080E1EE
:0100B100222C
:03000B000200D41C
:1000D400C0E0C0D0758C4C758AD00508E508B4041E
:0B00E40005750800B2B0D0D0D0E032AB
:03001B0002005789
:10005700C0E0C0F0C0D0758C4C758AD00509E509A1
:10006700B4141E750900050CE50CB43C03750C00AF
:10007700E50C75F00A84F50AE50C75F00A8485F03D
:080087000BD0D0D0F0D0E03224
:0300000002000EED
:0C000E00787FE4F6D8FD75810D0200B289
:00000001FF
