:10010D0000010203040506073F065B4F666D7D0780
:08011D007F6F777C395E797178
:06012500010A00010B00BD
:1000EB00758911758C4C758AD0758D4C758BD0D2EA
:1000FB00AFD2A9D2ABD28CD28EAD0BAF0A12008F7E
:02010B0080F77B
:10008F008D0DD2B7EF90011593F580C2B7E4F580CF
:10009F0090010D93F5A07F057E001200C8D2B7E541
:1000AF000D90011593F580C2B7E4F58090010E9382
:0900BF00F5A07F057E000200C8D7
:1000C800E4FDFCD3ED9FEC9E5018E4FBFAD3EB9FC4
:1000D800EA9E50070BBB00010A80F20DBD00010C1F
:0200E80080E1B5
:0100EA0022F3
:03000000020003F8
:0C000300787FE4F6D8FD75810D02004AFC
:10000F000200EBE493A3F8E493A34003F68001F21C
:10001F0008DFF48029E493A3F85407240CC8C333F2
:10002F00C4540F4420C8834004F456800146F6DFC1
:10003F00E4800B0102040810204080900125E47E2B
:10004F00019360BCA3FF543F30E509541FFEE493B6
:10005F00A360010ECF54C025E060A840B8E493A37D
:10006F00FAE493A3F8E493A3C8C582C8CAC583CAA8
:10007F00F0A3C8C582C8CAC583CADFE9DEE780BE60
:01012B0000D3
:00000001FF
