:1000E20000010203040506073F065B4F666D7D07AC
:0800F2007F6F777C395E7971A4
:0300BC0093F5A019
:1000BF00E4FDFCD3ED9FEC9E5018E4FBFAD3EB9FCD
:1000CF00EA9E50070BBB00010A80F20DBD00010C28
:0200DF0080E1BE
:0100E10022FC
:10000300D2B79000EBE493F580C2B7E4F58090009B
:10001300E293F5A07F027E001200BFD2B79000ECFE
:10002300E493F580C2B7E4F5809000E31200BCD2FC
:10003300B79000EDE493F580C2B7E4F5809000E457
:100043001200BCD2B79000EEE493F580C2B7E4F59A
:10005300809000E593F5A01200BFD2B79000EFE4C3
:1000630093F580C2B7E4F5809000E693F5A0120003
:10007300BFD2B79000F0E493F580C2B7E4F5809067
:1000830000E793F5A01200BFD2B79000F1E493F517
:1000930080C2B7E4F5809000E893F5A01200BFD2C8
:1000A300B79000F2E493F580C2B7E4F5809000E9DD
:0900B30093F5A01200BF02000346
:030000000200FA01
:0C00FA00787FE4F6D8FD75810702000352
:00000001FF
