:1001010000010203040506073F065B4F666D7D078C
:080111007F6F777C395E797184
:10000300D2B790010AE493F580C2B7E4F58090017A
:100013000193F5A07F027E001200DED2B790010BA0
:10002300E493F580C2B7E4F58090010293F5A07FD5
:10003300027E001200DED2B790010CE493F580C279
:10004300B7E4F58090010393F5A07F027E001200D0
:10005300DED2B790010DE493F580C2B7E4F580904A
:10006300010493F5A07F027E001200DED2B7900157
:100073000EE493F580C2B7E4F58090010593F5A0F3
:100083007F027E001200DED2B790010FE493F58069
:10009300C2B7E4F58090010693F5A07F027E0012BB
:1000A30000DED2B7900110E493F580C2B7E4F58087
:1000B30090010793F5A07F027E001200DED2B79075
:1000C3000111E493F580C2B7E4F58090010893F53C
:0B00D300A07F027E001200DE0200038E
:1000DE00E4FDFCD3ED9FEC9E5018E4FBFAD3EB9FAE
:1000EE00EA9E50070BBB00010A80F20DBD00010C09
:0200FE0080E19F
:0101000022DC
:03000000020119E1
:0C011900787FE4F6D8FD75810702000332
:00000001FF
