:1000AB00C2A3E4FEC294EFA806088002C333D8FCB7
:0D00BB00339290D2940EBE08EBD2A3D290E7
:0100C8002215
:10010300D2A5D2A6E4F580C2A5C2A67F401200AB59
:080113007590FFE4FF0200AB50
:1000C900D3EF9400EE940040147D727C00ED1D7016
:0D00D900011CED4C70F7EF1F70E61E80E378
:0100E60022F7
:10008B00E4FDFCC3ED9FEC9E5015E4FBFA0BBB00AB
:0F009B00010AEB64014A70F50DBD00010C80E411
:0100AA002233
:09006500C2A6C2A412006ED2A4CE
:10006E00E4FFFEE4FDFC0DBD00010CED64034C70DD
:0C007E00F50FBF00010EEF640B4E70E7A1
:01008A002253
:07013B008F80C2A5020065E0
:10011B007F3812013B7F0C12013B7F0612013B7FA4
:04012B000102013B91
:070142008F80D2A5020065C9
:0200E700AE0762
:1000E900BE01027A80BE02027AC0EA2D14FAFF121A
:0A00F900013B12006EAF030201424A
:1000030075082012010312011BAB087D017F011249
:1000130000E7E4F509F50AD3E50A9410E5096480DD
:1000230094805015AD0AAB087F011200E7050AE57D
:100033000A70020509050880DEE4F509F50AD3E52F
:100043000A9410E509648094805015AD0AAB087FCB
:10005300021200E7050AE50A70020509050880DEB9
:0200630080FE1D
:0300000002012FCB
:0C012F00787FE4F6D8FD75810A02000319
:00000001FF
