:10013D00C0F9A4B0999282F880908883C6A1868E6A
:1000FC00758901758D3C758BB0D288D28AD2A8D205
:10010C00AAD2ABD2AFD28EE50890013D93F5808098
:01011C00F6EC
:03001B000200D709
:1000D700C0E0C0D0758D3C758BB00509E509B41437
:1000E7000F7509000508E508D39408400375080053
:0500F700D0D0D0E03282
:0300030002001EDA
:10001E00C0E0C0F0C083C082C0D075D000C000C0A8
:10002E0001C002C003C004C005C006C007E50B90A6
:10003E00013D93F5A0750A00E50AC394084013E547
:10004E000A90013D93F5A07FE87E0312011D050A7B
:10005E0080E6D007D006D005D004D003D002D00160
:0D006E00D000D0D0D082D083D0F0D0E032CE
:0300130002007B6D
:10007B00C0E0C0F0C083C082C0D075D000C000C04B
:10008B0001C002C003C004C005C006C007750B0049
:10009B00E50BC394084013E50B90013D93F5907F5E
:1000AB00E87E0312011D050B80E690014CE493F5ED
:1000BB0090D007D006D005D004D003D002D001D009
:0C00CB0000D0D0D082D083D0F0D0E03242
:10011D00D3EF9400EE6480948040147D6E7C00EDEE
:0F012D001D70011CED4C70F7EF1F70E41E80E198
:01013C0022A0
:03000000020006F5
:0C000600787FE4F6D8FD75810B0200FC49
:00000001FF
