:1001F900C0F9A4B0999282F880908883C6A1868EAE
:1001E800020A003B020E0005020C0009020800008A
:0601970012019D7590FFAE
:10019D00E4FDFCD3ED9FEC9E5018E4FBFAD3EB9FEE
:1001AD00EA9E50070BBB00010A80F20DBD00010C49
:0201BD0080E1DF
:0101BF00221D
:0E020900758C3C758AB0758901D2A9D2AF22DE
:1001C000120209D28CE50F9001F993F590D2A0C2EA
:1001D000A17F037E00120197E50D93F590D2A1C295
:0801E000A07F0312019780DDEE
:03000B00020125CA
:10012500C0E0C0F0C0D075D000C000C004C005C09C
:1001350006C007758C3C758AB00509E5097002058E
:100145000864144508703AF508F509E50B150B70B8
:1001550002150AE50BB4FF0BE50AB4FF06750A00A4
:10016500750B3BAE0AAF0B7C007D0A12009A8E0E12
:100175008F0FAE0AAF0B7C007D0A12009A8C0C8D96
:100185000DD007D006D005D004D000D0D0D0F0D007
:02019500E03256
:0300000002000EED
:0C000E00787FE4F6D8FD75810F020055E4
:10009A00C2D5EC30E709B2D5E4C39DFDE49CFCEE81
:1000AA0030E715B2D5E4C39FFFE49EFE1200D0C329
:1000BA00E49DFDE49CFC80031200D030D507C3E424
:0600CA009FFFE49EFE22F0
:10001A000201C0E493A3F8E493A34003F68001F23B
:10002A0008DFF48029E493A3F85407240CC8C333E7
:10003A00C4540F4420C8834004F456800146F6DFB6
:10004A00E4800B01020408102040809001E8E47E5D
:10005A00019360BCA3FF543F30E509541FFEE493AB
:10006A00A360010ECF54C025E060A840B8E493A372
:10007A00FAE493A3F8E493A3C8C582C8CAC583CA9D
:10008A00F0A3C8C582C8CAC583CADFE9DEE780BE55
:0101F8000006
:1000D000BC000BBE0029EF8DF084FFADF022E4CC14
:1000E000F875F008EF2FFFEE33FEEC33FCEE9DECDD
:1000F000984005FCEE9DFE0FD5F0E9E4CEFD22ED23
:10010000F8F5F0EE8420D21CFEADF075F008EF2F6C
:10011000FFED33FD4007985006D5F0F222C398FD5D
:050120000FD5F0EA22FA
:00000001FF
